{
  "_format": "hh-sol-artifact-1",
  "contractName": "MyToken",
  "sourceName": "contracts/MyToken.sol",
  "abi": [
    {
      "inputs": [],
      "stateMutability": "nonpayable",
      "type": "constructor"
    },
    {
      "anonymous": false,
      "inputs": [
        {
          "indexed": true,
          "internalType": "address",
          "name": "owner",
          "type": "address"
        },
        {
          "indexed": true,
          "internalType": "address",
          "name": "spender",
          "type": "address"
        },
        {
          "indexed": false,
          "internalType": "uint256",
          "name": "amount",
          "type": "uint256"
        }
      ],
      "name": "Approve",
      "type": "event"
    },
    {
      "anonymous": false,
      "inputs": [
        {
          "indexed": true,
          "internalType": "address",
          "name": "from",
          "type": "address"
        },
        {
          "indexed": true,
          "internalType": "address",
          "name": "to",
          "type": "address"
        },
        {
          "indexed": false,
          "internalType": "uint256",
          "name": "amount",
          "type": "uint256"
        }
      ],
      "name": "Transfer",
      "type": "event"
    },
    {
      "inputs": [
        {
          "internalType": "address",
          "name": "",
          "type": "address"
        },
        {
          "internalType": "address",
          "name": "",
          "type": "address"
        }
      ],
      "name": "_allowance",
      "outputs": [
        {
          "internalType": "uint256",
          "name": "",
          "type": "uint256"
        }
      ],
      "stateMutability": "view",
      "type": "function"
    },
    {
      "inputs": [
        {
          "internalType": "address",
          "name": "",
          "type": "address"
        }
      ],
      "name": "_balanceOf",
      "outputs": [
        {
          "internalType": "uint256",
          "name": "",
          "type": "uint256"
        }
      ],
      "stateMutability": "view",
      "type": "function"
    },
    {
      "inputs": [
        {
          "internalType": "address",
          "name": "",
          "type": "address"
        }
      ],
      "name": "_blacklist",
      "outputs": [
        {
          "internalType": "bool",
          "name": "",
          "type": "bool"
        }
      ],
      "stateMutability": "view",
      "type": "function"
    },
    {
      "inputs": [],
      "name": "_decimals",
      "outputs": [
        {
          "internalType": "uint8",
          "name": "",
          "type": "uint8"
        }
      ],
      "stateMutability": "view",
      "type": "function"
    },
    {
      "inputs": [],
      "name": "_name",
      "outputs": [
        {
          "internalType": "string",
          "name": "",
          "type": "string"
        }
      ],
      "stateMutability": "view",
      "type": "function"
    },
    {
      "inputs": [],
      "name": "_symbol",
      "outputs": [
        {
          "internalType": "string",
          "name": "",
          "type": "string"
        }
      ],
      "stateMutability": "view",
      "type": "function"
    },
    {
      "inputs": [],
      "name": "_totalSupply",
      "outputs": [
        {
          "internalType": "uint256",
          "name": "",
          "type": "uint256"
        }
      ],
      "stateMutability": "view",
      "type": "function"
    },
    {
      "inputs": [
        {
          "internalType": "address",
          "name": "_owner",
          "type": "address"
        },
        {
          "internalType": "address",
          "name": "spender",
          "type": "address"
        }
      ],
      "name": "allowance",
      "outputs": [
        {
          "internalType": "uint256",
          "name": "",
          "type": "uint256"
        }
      ],
      "stateMutability": "view",
      "type": "function"
    },
    {
      "inputs": [
        {
          "internalType": "address",
          "name": "spender",
          "type": "address"
        },
        {
          "internalType": "uint256",
          "name": "amount",
          "type": "uint256"
        }
      ],
      "name": "approve",
      "outputs": [
        {
          "internalType": "bool",
          "name": "",
          "type": "bool"
        }
      ],
      "stateMutability": "nonpayable",
      "type": "function"
    },
    {
      "inputs": [
        {
          "internalType": "address",
          "name": "account",
          "type": "address"
        }
      ],
      "name": "balanceOf",
      "outputs": [
        {
          "internalType": "uint256",
          "name": "",
          "type": "uint256"
        }
      ],
      "stateMutability": "view",
      "type": "function"
    },
    {
      "inputs": [],
      "name": "decimals",
      "outputs": [
        {
          "internalType": "uint8",
          "name": "",
          "type": "uint8"
        }
      ],
      "stateMutability": "view",
      "type": "function"
    },
    {
      "inputs": [],
      "name": "mint",
      "outputs": [],
      "stateMutability": "nonpayable",
      "type": "function"
    },
    {
      "inputs": [],
      "name": "name",
      "outputs": [
        {
          "internalType": "string",
          "name": "",
          "type": "string"
        }
      ],
      "stateMutability": "view",
      "type": "function"
    },
    {
      "inputs": [],
      "name": "owner",
      "outputs": [
        {
          "internalType": "address",
          "name": "",
          "type": "address"
        }
      ],
      "stateMutability": "view",
      "type": "function"
    },
    {
      "inputs": [],
      "name": "symbol",
      "outputs": [
        {
          "internalType": "string",
          "name": "",
          "type": "string"
        }
      ],
      "stateMutability": "view",
      "type": "function"
    },
    {
      "inputs": [
        {
          "internalType": "address",
          "name": "_address",
          "type": "address"
        }
      ],
      "name": "to_blacklist",
      "outputs": [],
      "stateMutability": "nonpayable",
      "type": "function"
    },
    {
      "inputs": [],
      "name": "totalSupply",
      "outputs": [
        {
          "internalType": "uint256",
          "name": "",
          "type": "uint256"
        }
      ],
      "stateMutability": "view",
      "type": "function"
    },
    {
      "inputs": [
        {
          "internalType": "address",
          "name": "recipient",
          "type": "address"
        },
        {
          "internalType": "uint256",
          "name": "amount",
          "type": "uint256"
        }
      ],
      "name": "transfer",
      "outputs": [
        {
          "internalType": "bool",
          "name": "",
          "type": "bool"
        }
      ],
      "stateMutability": "nonpayable",
      "type": "function"
    },
    {
      "inputs": [
        {
          "internalType": "address",
          "name": "sender",
          "type": "address"
        },
        {
          "internalType": "address",
          "name": "recipient",
          "type": "address"
        },
        {
          "internalType": "uint256",
          "name": "amount",
          "type": "uint256"
        }
      ],
      "name": "transferFrom",
      "outputs": [
        {
          "internalType": "bool",
          "name": "",
          "type": "bool"
        }
      ],
      "stateMutability": "nonpayable",
      "type": "function"
    }
  ],
  "bytecode": "0x608060405269d3c21bcecceda10000006000556040518060400160405280600881526020017f4e6577546f6b656e000000000000000000000000000000000000000000000000815250600590805190602001906200005f9291906200011f565b506040518060400160405280600281526020017f4e5400000000000000000000000000000000000000000000000000000000000081525060069080519060200190620000ad9291906200011f565b506012600760006101000a81548160ff021916908360ff160217905550348015620000d757600080fd5b5033600160006101000a81548173ffffffffffffffffffffffffffffffffffffffff021916908373ffffffffffffffffffffffffffffffffffffffff16021790555062000234565b8280546200012d90620001fe565b90600052602060002090601f0160209004810192826200015157600085556200019d565b82601f106200016c57805160ff19168380011785556200019d565b828001600101855582156200019d579182015b828111156200019c5782518255916020019190600101906200017f565b5b509050620001ac9190620001b0565b5090565b5b80821115620001cb576000816000905550600101620001b1565b5090565b7f4e487b7100000000000000000000000000000000000000000000000000000000600052602260045260246000fd5b600060028204905060018216806200021757607f821691505b602082108114156200022e576200022d620001cf565b5b50919050565b61142380620002446000396000f3fe608060405234801561001057600080fd5b50600436106101215760003560e01c80638da5cb5b116100ad578063b09f126611610071578063b09f12661461030e578063cca3e8321461032c578063d28d88521461035c578063dd336c121461037a578063dd62ed3e146103aa57610121565b80638da5cb5b1461025657806395d89b411461027457806397a6104a14610292578063a20623ce146102ae578063a9059cbb146102de57610121565b806323b872dd116100f457806323b872dd1461019c578063313ce567146101cc57806332424aa3146101ea5780633eaaf86b1461020857806370a082311461022657610121565b806306fdde0314610126578063095ea7b3146101445780631249c58b1461017457806318160ddd1461017e575b600080fd5b61012e6103da565b60405161013b9190610f13565b60405180910390f35b61015e60048036038101906101599190610fce565b61046c565b60405161016b9190611029565b60405180910390f35b61017c61055e565b005b61018661066d565b6040516101939190611053565b60405180910390f35b6101b660048036038101906101b1919061106e565b610676565b6040516101c39190611029565b60405180910390f35b6101d4610827565b6040516101e191906110dd565b60405180910390f35b6101f261083e565b6040516101ff91906110dd565b60405180910390f35b610210610851565b60405161021d9190611053565b60405180910390f35b610240600480360381019061023b91906110f8565b610857565b60405161024d9190611053565b60405180910390f35b61025e6108a0565b60405161026b9190611134565b60405180910390f35b61027c6108c6565b6040516102899190610f13565b60405180910390f35b6102ac60048036038101906102a791906110f8565b610958565b005b6102c860048036038101906102c391906110f8565b610ad0565b6040516102d59190611029565b60405180910390f35b6102f860048036038101906102f39190610fce565b610af0565b6040516103059190611029565b60405180910390f35b610316610c9a565b6040516103239190610f13565b60405180910390f35b610346600480360381019061034191906110f8565b610d28565b6040516103539190611053565b60405180910390f35b610364610d40565b6040516103719190610f13565b60405180910390f35b610394600480360381019061038f919061114f565b610dce565b6040516103a19190611053565b60405180910390f35b6103c460048036038101906103bf919061114f565b610df3565b6040516103d19190611053565b60405180910390f35b6060600580546103e9906111be565b80601f0160208091040260200160405190810160405280929190818152602001828054610415906111be565b80156104625780601f1061043757610100808354040283529160200191610462565b820191906000526020600020905b81548152906001019060200180831161044557829003601f168201915b5050505050905090565b600081600360003373ffffffffffffffffffffffffffffffffffffffff1673ffffffffffffffffffffffffffffffffffffffff16815260200190815260200160002060008573ffffffffffffffffffffffffffffffffffffffff1673ffffffffffffffffffffffffffffffffffffffff168152602001908152602001600020819055508273ffffffffffffffffffffffffffffffffffffffff163373ffffffffffffffffffffffffffffffffffffffff167f6e11fb1b7f119e3f2fa29896ef5fdf8b8a2d0d4df6fe90ba8668e7d8b2ffa25e8460405161054c9190611053565b60405180910390a36001905092915050565b600160009054906101000a900473ffffffffffffffffffffffffffffffffffffffff1673ffffffffffffffffffffffffffffffffffffffff163373ffffffffffffffffffffffffffffffffffffffff16146105ee576040517f08c379a00000000000000000000000000000000000000000000000000000000081526004016105e59061123c565b60405180910390fd5b6000681b1ae4d6e2ef500000905080600260003373ffffffffffffffffffffffffffffffffffffffff1673ffffffffffffffffffffffffffffffffffffffff168152602001908152602001600020600082825461064b919061128b565b9250508190555080600080828254610663919061128b565b9250508190555050565b60008054905090565b600081600360008673ffffffffffffffffffffffffffffffffffffffff1673ffffffffffffffffffffffffffffffffffffffff16815260200190815260200160002060008573ffffffffffffffffffffffffffffffffffffffff1673ffffffffffffffffffffffffffffffffffffffff168152602001908152602001600020600082825461070491906112e1565b9250508190555081600260008673ffffffffffffffffffffffffffffffffffffffff1673ffffffffffffffffffffffffffffffffffffffff168152602001908152602001600020600082825461075a91906112e1565b9250508190555081600260008573ffffffffffffffffffffffffffffffffffffffff1673ffffffffffffffffffffffffffffffffffffffff16815260200190815260200160002060008282546107b0919061128b565b925050819055508273ffffffffffffffffffffffffffffffffffffffff168473ffffffffffffffffffffffffffffffffffffffff167fddf252ad1be2c89b69c2b068fc378daa952ba7f163c4a11628f55a4df523b3ef846040516108149190611053565b60405180910390a3600190509392505050565b6000600760009054906101000a900460ff16905090565b600760009054906101000a900460ff1681565b60005481565b6000600260008373ffffffffffffffffffffffffffffffffffffffff1673ffffffffffffffffffffffffffffffffffffffff168152602001908152602001600020549050919050565b600160009054906101000a900473ffffffffffffffffffffffffffffffffffffffff1681565b6060600680546108d5906111be565b80601f0160208091040260200160405190810160405280929190818152602001828054610901906111be565b801561094e5780601f106109235761010080835404028352916020019161094e565b820191906000526020600020905b81548152906001019060200180831161093157829003601f168201915b5050505050905090565b600160009054906101000a900473ffffffffffffffffffffffffffffffffffffffff1673ffffffffffffffffffffffffffffffffffffffff163373ffffffffffffffffffffffffffffffffffffffff16146109e8576040517f08c379a00000000000000000000000000000000000000000000000000000000081526004016109df9061123c565b60405180910390fd5b600460008273ffffffffffffffffffffffffffffffffffffffff1673ffffffffffffffffffffffffffffffffffffffff16815260200190815260200160002060009054906101000a900460ff1615610a75576040517f08c379a0000000000000000000000000000000000000000000000000000000008152600401610a6c90611361565b60405180910390fd5b6001600460008373ffffffffffffffffffffffffffffffffffffffff1673ffffffffffffffffffffffffffffffffffffffff16815260200190815260200160002060006101000a81548160ff02191690831515021790555050565b60046020528060005260406000206000915054906101000a900460ff1681565b6000600460008473ffffffffffffffffffffffffffffffffffffffff1673ffffffffffffffffffffffffffffffffffffffff16815260200190815260200160002060009054906101000a900460ff1615610b7f576040517f08c379a0000000000000000000000000000000000000000000000000000000008152600401610b76906113cd565b60405180910390fd5b81600260003373ffffffffffffffffffffffffffffffffffffffff1673ffffffffffffffffffffffffffffffffffffffff1681526020019081526020016000206000828254610bce91906112e1565b9250508190555081600260008573ffffffffffffffffffffffffffffffffffffffff1673ffffffffffffffffffffffffffffffffffffffff1681526020019081526020016000206000828254610c24919061128b565b925050819055508273ffffffffffffffffffffffffffffffffffffffff163373ffffffffffffffffffffffffffffffffffffffff167fddf252ad1be2c89b69c2b068fc378daa952ba7f163c4a11628f55a4df523b3ef84604051610c889190611053565b60405180910390a36001905092915050565b60068054610ca7906111be565b80601f0160208091040260200160405190810160405280929190818152602001828054610cd3906111be565b8015610d205780601f10610cf557610100808354040283529160200191610d20565b820191906000526020600020905b815481529060010190602001808311610d0357829003601f168201915b505050505081565b60026020528060005260406000206000915090505481565b60058054610d4d906111be565b80601f0160208091040260200160405190810160405280929190818152602001828054610d79906111be565b8015610dc65780601f10610d9b57610100808354040283529160200191610dc6565b820191906000526020600020905b815481529060010190602001808311610da957829003601f168201915b505050505081565b6003602052816000526040600020602052806000526040600020600091509150505481565b6000600360008473ffffffffffffffffffffffffffffffffffffffff1673ffffffffffffffffffffffffffffffffffffffff16815260200190815260200160002060008373ffffffffffffffffffffffffffffffffffffffff1673ffffffffffffffffffffffffffffffffffffffff16815260200190815260200160002054905092915050565b600081519050919050565b600082825260208201905092915050565b60005b83811015610eb4578082015181840152602081019050610e99565b83811115610ec3576000848401525b50505050565b6000601f19601f8301169050919050565b6000610ee582610e7a565b610eef8185610e85565b9350610eff818560208601610e96565b610f0881610ec9565b840191505092915050565b60006020820190508181036000830152610f2d8184610eda565b905092915050565b600080fd5b600073ffffffffffffffffffffffffffffffffffffffff82169050919050565b6000610f6582610f3a565b9050919050565b610f7581610f5a565b8114610f8057600080fd5b50565b600081359050610f9281610f6c565b92915050565b6000819050919050565b610fab81610f98565b8114610fb657600080fd5b50565b600081359050610fc881610fa2565b92915050565b60008060408385031215610fe557610fe4610f35565b5b6000610ff385828601610f83565b925050602061100485828601610fb9565b9150509250929050565b60008115159050919050565b6110238161100e565b82525050565b600060208201905061103e600083018461101a565b92915050565b61104d81610f98565b82525050565b60006020820190506110686000830184611044565b92915050565b60008060006060848603121561108757611086610f35565b5b600061109586828701610f83565b93505060206110a686828701610f83565b92505060406110b786828701610fb9565b9150509250925092565b600060ff82169050919050565b6110d7816110c1565b82525050565b60006020820190506110f260008301846110ce565b92915050565b60006020828403121561110e5761110d610f35565b5b600061111c84828501610f83565b91505092915050565b61112e81610f5a565b82525050565b60006020820190506111496000830184611125565b92915050565b6000806040838503121561116657611165610f35565b5b600061117485828601610f83565b925050602061118585828601610f83565b9150509250929050565b7f4e487b7100000000000000000000000000000000000000000000000000000000600052602260045260246000fd5b600060028204905060018216806111d657607f821691505b602082108114156111ea576111e961118f565b5b50919050565b7f6f6e6c79206f776e657200000000000000000000000000000000000000000000600082015250565b6000611226600a83610e85565b9150611231826111f0565b602082019050919050565b6000602082019050818103600083015261125581611219565b9050919050565b7f4e487b7100000000000000000000000000000000000000000000000000000000600052601160045260246000fd5b600061129682610f98565b91506112a183610f98565b9250827fffffffffffffffffffffffffffffffffffffffffffffffffffffffffffffffff038211156112d6576112d561125c565b5b828201905092915050565b60006112ec82610f98565b91506112f783610f98565b92508282101561130a5761130961125c565b5b828203905092915050565b7f746869732061646472657373206973206e6f7720626c61636b6c697374656400600082015250565b600061134b601f83610e85565b915061135682611315565b602082019050919050565b6000602082019050818103600083015261137a8161133e565b9050919050565b7f616c726561647920626c61636b6c697374656400000000000000000000000000600082015250565b60006113b7601383610e85565b91506113c282611381565b602082019050919050565b600060208201905081810360008301526113e6816113aa565b905091905056fea264697066735822122039c09f310d0f37a107ec50cdec31816c4331e87a6096645da2162d009a172ffc64736f6c63430008090033",
  "linkReferences": {},
  "deployedLinkReferences": {}
}